{
  "contractName": "ProductIdentification",
  "abi": [
    {
      "inputs": [],
      "stateMutability": "nonpayable",
      "type": "constructor"
    },
    {
      "inputs": [],
      "name": "numberOfProduct",
      "outputs": [
        {
          "internalType": "uint256",
          "name": "",
          "type": "uint256"
        }
      ],
      "stateMutability": "view",
      "type": "function",
      "constant": true
    },
    {
      "inputs": [
        {
          "internalType": "uint256",
          "name": "",
          "type": "uint256"
        }
      ],
      "name": "productList",
      "outputs": [
        {
          "internalType": "string",
          "name": "ProductName",
          "type": "string"
        },
        {
          "internalType": "uint256",
          "name": "ProductID",
          "type": "uint256"
        },
        {
          "internalType": "address",
          "name": "owner",
          "type": "address"
        },
        {
          "internalType": "string",
          "name": "Description",
          "type": "string"
        },
        {
          "internalType": "uint256",
          "name": "tNumber",
          "type": "uint256"
        }
      ],
      "stateMutability": "view",
      "type": "function",
      "constant": true
    },
    {
      "inputs": [
        {
          "internalType": "string",
          "name": "_ProductName",
          "type": "string"
        },
        {
          "internalType": "uint256",
          "name": "_ProductID",
          "type": "uint256"
        },
        {
          "internalType": "string",
          "name": "_Description",
          "type": "string"
        }
      ],
      "name": "CreateProduct",
      "outputs": [],
      "stateMutability": "nonpayable",
      "type": "function"
    },
    {
      "inputs": [
        {
          "internalType": "address",
          "name": "_newOwnerAddress",
          "type": "address"
        },
        {
          "internalType": "uint256",
          "name": "_ProductID",
          "type": "uint256"
        }
      ],
      "name": "transferProduct",
      "outputs": [],
      "stateMutability": "nonpayable",
      "type": "function"
    },
    {
      "inputs": [
        {
          "internalType": "uint256",
          "name": "ProductID",
          "type": "uint256"
        },
        {
          "internalType": "uint256",
          "name": "n",
          "type": "uint256"
        }
      ],
      "name": "getProvenence",
      "outputs": [
        {
          "components": [
            {
              "internalType": "address",
              "name": "owner",
              "type": "address"
            },
            {
              "internalType": "uint256",
              "name": "BlockNumber",
              "type": "uint256"
            },
            {
              "internalType": "uint256",
              "name": "TimeStamp",
              "type": "uint256"
            }
          ],
          "internalType": "struct ProductIdentification.history",
          "name": "h",
          "type": "tuple"
        }
      ],
      "stateMutability": "nonpayable",
      "type": "function"
    }
  ],
  "bytecode": "0x608060405234801561001057600080fd5b506000600281905550610d03806100286000396000f3fe608060405234801561001057600080fd5b5060043610610074576000357c010000000000000000000000000000000000000000000000000000000090048063025a42ae146100795780631ae208bf14610095578063528c87d2146100b157806383b683ef146100e557806393930fc014610103575b600080fd5b610093600480360361008e91908101906108cd565b610133565b005b6100af60048036036100aa9190810190610909565b6102b9565b005b6100cb60048036036100c69190810190610988565b6104f7565b6040516100dc959493929190610ae4565b60405180910390f35b6100ed61067d565b6040516100fa9190610b80565b60405180910390f35b61011d600480360361011891908101906109b1565b610683565b60405161012a9190610b65565b60405180910390f35b8160008083815260200190815260200160002060020160006101000a81548173ffffffffffffffffffffffffffffffffffffffff021916908373ffffffffffffffffffffffffffffffffffffffff1602179055506000808281526020019081526020016000206004016000815480929190600101919050555060008060008381526020019081526020016000206004016000815480929190600101919050559050600080600084815260200190815260200160002090506101f261072e565b438160200181815250504281604001818152505084816000019073ffffffffffffffffffffffffffffffffffffffff16908173ffffffffffffffffffffffffffffffffffffffff16815250508082600501600085815260200190815260200160002060008201518160000160006101000a81548173ffffffffffffffffffffffffffffffffffffffff021916908373ffffffffffffffffffffffffffffffffffffffff16021790555060208201518160010155604082015181600201559050505050505050565b60008060008481526020019081526020016000206001015414610311576040517f08c379a000000000000000000000000000000000000000000000000000000000815260040161030890610b45565b60405180910390fd5b610319610765565b61032161072e565b60405180606001604052803373ffffffffffffffffffffffffffffffffffffffff16815260200143815260200142815250905033826040019073ffffffffffffffffffffffffffffffffffffffff16908173ffffffffffffffffffffffffffffffffffffffff1681525050848260000181905250838260200181815250508282606001819052508160008086815260200190815260200160002060008201518160000190805190602001906103d79291906107aa565b506020820151816001015560408201518160020160006101000a81548173ffffffffffffffffffffffffffffffffffffffff021916908373ffffffffffffffffffffffffffffffffffffffff16021790555060608201518160030190805190602001906104459291906107aa565b5060808201518160040155905050600080600086815260200190815260200160002090508181600501600080815260200190815260200160002060008201518160000160006101000a81548173ffffffffffffffffffffffffffffffffffffffff021916908373ffffffffffffffffffffffffffffffffffffffff1602179055506020820151816001015560408201518160020155905050600260008154809291906001019190505550505050505050565b6000602052806000526040600020600091509050806000018054600181600116156101000203166002900480601f0160208091040260200160405190810160405280929190818152602001828054600181600116156101000203166002900480156105a35780601f10610578576101008083540402835291602001916105a3565b820191906000526020600020905b81548152906001019060200180831161058657829003601f168201915b5050505050908060010154908060020160009054906101000a900473ffffffffffffffffffffffffffffffffffffffff1690806003018054600181600116156101000203166002900480601f01602080910402602001604051908101604052809291908181526020018280546001816001161561010002031660029004801561066d5780601f106106425761010080835404028352916020019161066d565b820191906000526020600020905b81548152906001019060200180831161065057829003601f168201915b5050505050908060040154905085565b60025481565b61068b61072e565b60008084815260200190815260200160002060050160008381526020019081526020016000206040518060600160405290816000820160009054906101000a900473ffffffffffffffffffffffffffffffffffffffff1673ffffffffffffffffffffffffffffffffffffffff1673ffffffffffffffffffffffffffffffffffffffff16815260200160018201548152602001600282015481525050905092915050565b6040518060600160405280600073ffffffffffffffffffffffffffffffffffffffff16815260200160008152602001600081525090565b6040518060a001604052806060815260200160008152602001600073ffffffffffffffffffffffffffffffffffffffff16815260200160608152602001600081525090565b828054600181600116156101000203166002900490600052602060002090601f016020900481019282601f106107eb57805160ff1916838001178555610819565b82800160010185558215610819579182015b828111156108185782518255916020019190600101906107fd565b5b509050610826919061082a565b5090565b61084c91905b80821115610848576000816000905550600101610830565b5090565b90565b60008135905061085e81610c9f565b92915050565b600082601f83011261087557600080fd5b813561088861088382610bc8565b610b9b565b915080825260208301602083018583830111156108a457600080fd5b6108af838284610c4c565b50505092915050565b6000813590506108c781610cb6565b92915050565b600080604083850312156108e057600080fd5b60006108ee8582860161084f565b92505060206108ff858286016108b8565b9150509250929050565b60008060006060848603121561091e57600080fd5b600084013567ffffffffffffffff81111561093857600080fd5b61094486828701610864565b9350506020610955868287016108b8565b925050604084013567ffffffffffffffff81111561097257600080fd5b61097e86828701610864565b9150509250925092565b60006020828403121561099a57600080fd5b60006109a8848285016108b8565b91505092915050565b600080604083850312156109c457600080fd5b60006109d2858286016108b8565b92505060206109e3858286016108b8565b9150509250929050565b6109f681610c10565b82525050565b610a0581610c10565b82525050565b6000610a1682610bf4565b610a208185610bff565b9350610a30818560208601610c5b565b610a3981610c8e565b840191505092915050565b6000610a51601a83610bff565b91507f7468652070726f6475637420616c6c72656164792065786973740000000000006000830152602082019050919050565b606082016000820151610a9a60008501826109ed565b506020820151610aad6020850182610ac6565b506040820151610ac06040850182610ac6565b50505050565b610acf81610c42565b82525050565b610ade81610c42565b82525050565b600060a0820190508181036000830152610afe8188610a0b565b9050610b0d6020830187610ad5565b610b1a60408301866109fc565b8181036060830152610b2c8185610a0b565b9050610b3b6080830184610ad5565b9695505050505050565b60006020820190508181036000830152610b5e81610a44565b9050919050565b6000606082019050610b7a6000830184610a84565b92915050565b6000602082019050610b956000830184610ad5565b92915050565b6000604051905081810181811067ffffffffffffffff82111715610bbe57600080fd5b8060405250919050565b600067ffffffffffffffff821115610bdf57600080fd5b601f19601f8301169050602081019050919050565b600081519050919050565b600082825260208201905092915050565b6000610c1b82610c22565b9050919050565b600073ffffffffffffffffffffffffffffffffffffffff82169050919050565b6000819050919050565b82818337600083830152505050565b60005b83811015610c79578082015181840152602081019050610c5e565b83811115610c88576000848401525b50505050565b6000601f19601f8301169050919050565b610ca881610c10565b8114610cb357600080fd5b50565b610cbf81610c42565b8114610cca57600080fd5b5056fea264697066735822122071dd585457b39e6758e56b67129ee1f818e1ec9b1f7dc92a5f543e743916e19464736f6c63430006030033",
  "source": "pragma solidity >=0.5.0 <0.8.0;\npragma experimental ABIEncoderV2;\n\ncontract ProductIdentification {\n    struct history {\n        address owner;\n        uint256 BlockNumber;\n        uint256 TimeStamp;\n    }\n\n    struct product {\n        string ProductName;\n        uint256 ProductID;\n        address owner;\n        string Description;\n        uint256 tNumber;\n        mapping(uint256 => history) historymapping;\n    }\n\n    mapping(uint256 => product) public productList;\n\n    uint256[] productArray;\n    uint256 public numberOfProduct;\n\n    constructor() public {\n        numberOfProduct = 0;\n    }\n\n    function CreateProduct(\n        string memory _ProductName,\n        uint256 _ProductID,\n        string memory _Description\n    ) public {\n        require(\n            productList[_ProductID].ProductID == 0,\n            \"the product allready exist\"\n        );\n\n        product memory tempProduct;\n        history memory historyOfProduct =\n            history(msg.sender, block.number, block.timestamp);\n\n        tempProduct.owner = msg.sender;\n        tempProduct.ProductName = _ProductName;\n        tempProduct.ProductID = _ProductID;\n        tempProduct.Description = _Description;\n\n        productList[_ProductID] = tempProduct;\n\n        product storage p = productList[_ProductID];\n\n        p.historymapping[0] = historyOfProduct;\n\n        numberOfProduct++;\n    }\n\n    function transferProduct(address _newOwnerAddress, uint256 _ProductID)\n        public\n    {\n        //require (productList[_ProductID].owner == msg.sender, \"msg.sender is not the owner of the product\" );\n        productList[_ProductID].owner = _newOwnerAddress;\n        productList[_ProductID].tNumber++;\n\n        uint256 n = productList[_ProductID].tNumber++;\n        product storage p = productList[_ProductID];\n\n        history memory h;\n        h.BlockNumber = block.number;\n        h.TimeStamp = block.timestamp;\n        h.owner = _newOwnerAddress;\n\n        p.historymapping[n] = h;\n    }\n\n    function getProvenence(uint256 ProductID, uint256 n)\n        public\n        returns (history memory h)\n    {\n        return productList[ProductID].historymapping[n];\n    }\n\n    // function getAllProduct() public{\n    //     return productArray;\n    // }\n\n    // function getAllHistory() public{\n    //     return historyArray;\n    // }\n\n    //function fetchHistory()\n}\n",
  "sourcePath": "/Users/vinee/Documents/workspace/eth-todolist-react/contracts/ProductIdentification.sol",
  "compiler": {
    "name": "solc",
    "version": "0.6.3+commit.8dda9521.Linux.g++"
  },
  "schemaVersion": "3.4.1",
  "updatedAt": "2021-06-13T03:51:58.918Z",
  "networkType": "ethereum",
  "devdoc": {
    "methods": {}
  },
  "userdoc": {
    "methods": {}
  }
}