{
  "contractName": "TestContract",
  "abi": [
    {
      "inputs": [],
      "stateMutability": "nonpayable",
      "type": "constructor"
    },
    {
      "inputs": [],
      "name": "owner",
      "outputs": [
        {
          "internalType": "address payable",
          "name": "",
          "type": "address"
        }
      ],
      "stateMutability": "view",
      "type": "function",
      "constant": true
    },
    {
      "inputs": [],
      "name": "value",
      "outputs": [
        {
          "internalType": "uint256",
          "name": "",
          "type": "uint256"
        }
      ],
      "stateMutability": "view",
      "type": "function",
      "constant": true
    },
    {
      "inputs": [],
      "name": "kill",
      "outputs": [],
      "stateMutability": "nonpayable",
      "type": "function"
    },
    {
      "inputs": [
        {
          "internalType": "uint256",
          "name": "_value",
          "type": "uint256"
        }
      ],
      "name": "changeValue",
      "outputs": [],
      "stateMutability": "nonpayable",
      "type": "function"
    }
  ],
  "bytecode": "0x608060405234801561001057600080fd5b503373ffffffffffffffffffffffffffffffffffffffff166000809054906101000a9050505062bc65a560018190555061020a8061004f6000396000f3fe608060405234801561001057600080fd5b5060043610610069576000357c0100000000000000000000000000000000000000000000000000000000900480633fa4f2451461006e57806341c0e1b51461008c5780638da5cb5b14610096578063f965e32e146100e0575b600080fd5b61007661010e565b6040518082815260200191505060405180910390f35b610094610114565b005b61009e6101a5565b604051808273ffffffffffffffffffffffffffffffffffffffff1673ffffffffffffffffffffffffffffffffffffffff16815260200191505060405180910390f35b61010c600480360360208110156100f657600080fd5b81019080803590602001909291905050506101ca565b005b60015481565b6000809054906101000a900473ffffffffffffffffffffffffffffffffffffffff1673ffffffffffffffffffffffffffffffffffffffff163373ffffffffffffffffffffffffffffffffffffffff1614156101a3576000809054906101000a900473ffffffffffffffffffffffffffffffffffffffff1673ffffffffffffffffffffffffffffffffffffffff16ff5b565b6000809054906101000a900473ffffffffffffffffffffffffffffffffffffffff1681565b806001819055505056fea2646970667358221220174ebd0c24139b791a5c5a31769efdf104f06d599471cd1d0978d5a1f9b4a4c864736f6c63430006030033",
  "source": "pragma solidity >=0.5.0 <0.8.0;\n\ncontract TestContract {\n    address payable public owner;\n    uint256 public value;\n\n    modifier onlyOwner {\n        require(msg.sender == owner);\n        _;\n    }\n\n    constructor() public {\n        owner == msg.sender; //only owner is who calls the function\n        value = 12346789;\n    }\n\n    function kill() public {\n        if (msg.sender == owner) selfdestruct(owner);\n    }\n\n    function changeValue(uint256 _value) public {\n        value = _value;\n    }\n}\n",
  "sourcePath": "/Users/vinee/Documents/workspace/eth-todolist-react/contracts/TestContract.sol",
  "compiler": {
    "name": "solc",
    "version": "0.6.3+commit.8dda9521.Linux.g++"
  },
  "schemaVersion": "3.4.1",
  "updatedAt": "2021-06-10T17:04:38.434Z",
  "networkType": "ethereum",
  "devdoc": {
    "methods": {}
  },
  "userdoc": {
    "methods": {}
  }
}